{
  "contractName": "TodoList",
  "abi": [
    {
      "anonymous": false,
      "inputs": [
        {
          "indexed": false,
          "internalType": "uint256",
          "name": "id",
          "type": "uint256"
        },
        {
          "indexed": false,
          "internalType": "string",
          "name": "content",
          "type": "string"
        },
        {
          "indexed": false,
          "internalType": "bool",
          "name": "completed",
          "type": "bool"
        }
      ],
      "name": "TodoCreated",
      "type": "event"
    },
    {
      "inputs": [
        {
          "internalType": "uint256",
          "name": "",
          "type": "uint256"
        }
      ],
      "name": "todos",
      "outputs": [
        {
          "internalType": "uint256",
          "name": "id",
          "type": "uint256"
        },
        {
          "internalType": "string",
          "name": "content",
          "type": "string"
        },
        {
          "internalType": "bool",
          "name": "done",
          "type": "bool"
        }
      ],
      "stateMutability": "view",
      "type": "function"
    },
    {
      "inputs": [],
      "name": "todosCount",
      "outputs": [
        {
          "internalType": "uint256",
          "name": "",
          "type": "uint256"
        }
      ],
      "stateMutability": "view",
      "type": "function"
    },
    {
      "inputs": [
        {
          "internalType": "string",
          "name": "_content",
          "type": "string"
        }
      ],
      "name": "createTask",
      "outputs": [],
      "stateMutability": "nonpayable",
      "type": "function"
    }
  ],
  "bytecode": "0x60806040526000805534801561001457600080fd5b5061071b806100246000396000f3fe608060405234801561001057600080fd5b50600436106100415760003560e01c8063111002aa14610046578063bc8bc2b414610062578063d4474c9214610094575b600080fd5b610060600480360381019061005b9190610448565b6100b2565b005b61007c600480360381019061007791906104c7565b610186565b60405161008b939291906105a6565b60405180910390f35b61009c610245565b6040516100a991906105e4565b60405180910390f35b6040518060600160405280600054815260200182815260200160001515815250600160008054815260200190815260200160002060008201518160000155602082015181600101908051906020019061010c92919061024b565b5060408201518160020160006101000a81548160ff021916908315150217905550905050600160005461013f919061062e565b6000819055507f216b7b554cc6be0fbaed756f9b62e83e41a91839dc1556b845c14d0f6703664660005482600060405161017b939291906105a6565b60405180910390a150565b60016020528060005260406000206000915090508060000154908060010180546101af906106b3565b80601f01602080910402602001604051908101604052809291908181526020018280546101db906106b3565b80156102285780601f106101fd57610100808354040283529160200191610228565b820191906000526020600020905b81548152906001019060200180831161020b57829003601f168201915b5050505050908060020160009054906101000a900460ff16905083565b60005481565b828054610257906106b3565b90600052602060002090601f01602090048101928261027957600085556102c0565b82601f1061029257805160ff19168380011785556102c0565b828001600101855582156102c0579182015b828111156102bf5782518255916020019190600101906102a4565b5b5090506102cd91906102d1565b5090565b5b808211156102ea5760008160009055506001016102d2565b5090565b6000604051905090565b600080fd5b600080fd5b600080fd5b600080fd5b6000601f19601f8301169050919050565b7f4e487b7100000000000000000000000000000000000000000000000000000000600052604160045260246000fd5b6103558261030c565b810181811067ffffffffffffffff821117156103745761037361031d565b5b80604052505050565b60006103876102ee565b9050610393828261034c565b919050565b600067ffffffffffffffff8211156103b3576103b261031d565b5b6103bc8261030c565b9050602081019050919050565b82818337600083830152505050565b60006103eb6103e684610398565b61037d565b90508281526020810184848401111561040757610406610307565b5b6104128482856103c9565b509392505050565b600082601f83011261042f5761042e610302565b5b813561043f8482602086016103d8565b91505092915050565b60006020828403121561045e5761045d6102f8565b5b600082013567ffffffffffffffff81111561047c5761047b6102fd565b5b6104888482850161041a565b91505092915050565b6000819050919050565b6104a481610491565b81146104af57600080fd5b50565b6000813590506104c18161049b565b92915050565b6000602082840312156104dd576104dc6102f8565b5b60006104eb848285016104b2565b91505092915050565b6104fd81610491565b82525050565b600081519050919050565b600082825260208201905092915050565b60005b8381101561053d578082015181840152602081019050610522565b8381111561054c576000848401525b50505050565b600061055d82610503565b610567818561050e565b935061057781856020860161051f565b6105808161030c565b840191505092915050565b60008115159050919050565b6105a08161058b565b82525050565b60006060820190506105bb60008301866104f4565b81810360208301526105cd8185610552565b90506105dc6040830184610597565b949350505050565b60006020820190506105f960008301846104f4565b92915050565b7f4e487b7100000000000000000000000000000000000000000000000000000000600052601160045260246000fd5b600061063982610491565b915061064483610491565b9250827fffffffffffffffffffffffffffffffffffffffffffffffffffffffffffffffff03821115610679576106786105ff565b5b828201905092915050565b7f4e487b7100000000000000000000000000000000000000000000000000000000600052602260045260246000fd5b600060028204905060018216806106cb57607f821691505b602082108114156106df576106de610684565b5b5091905056fea2646970667358221220e21fc35abede6aecaac342a74be486072bb8fb80dee9e6cf035b777c870ed55464736f6c634300080c0033",
  "immutableReferences": {},
  "source": "// SPDX-License-Identifier: GPL-3.0\n\npragma solidity ^0.8.12;\n\ncontract TodoList {\n    uint256 public todosCount = 0;\n\n    struct Todo {\n        uint256 id;\n        string content;\n        bool done;\n    }\n\n    event TodoCreated(uint256 id, string content, bool completed);\n\n    mapping(uint256 => Todo) public todos;\n\n    function createTask(string memory _content) public {\n        todos[todosCount] = Todo(todosCount, _content, false);\n        todosCount = todosCount + 1;\n        emit TodoCreated(todosCount, _content, false);\n    }\n}\n",
  "sourcePath": "/Users/avner/Studies/avner/blockchain/tikal-fuse/eth-todo-list-vite/contracts/TodoList.sol",
  "compiler": {
    "name": "solc",
    "version": "0.8.12+commit.f00d7308.Emscripten.clang"
  },
  "schemaVersion": "3.4.6",
  "updatedAt": "2022-03-30T21:47:46.134Z",
  "devdoc": {
    "kind": "dev",
    "methods": {},
    "version": 1
  },
  "userdoc": {
    "kind": "user",
    "methods": {},
    "version": 1
  }
}