{
  "contractName": "TodoList",
  "abi": [
    {
      "anonymous": false,
      "inputs": [
        {
          "indexed": false,
          "internalType": "uint256",
          "name": "id",
          "type": "uint256"
        },
        {
          "indexed": false,
          "internalType": "string",
          "name": "content",
          "type": "string"
        },
        {
          "indexed": false,
          "internalType": "bool",
          "name": "completed",
          "type": "bool"
        }
      ],
      "name": "TodoCreated",
      "type": "event"
    },
    {
      "inputs": [
        {
          "internalType": "uint256",
          "name": "",
          "type": "uint256"
        }
      ],
      "name": "todos",
      "outputs": [
        {
          "internalType": "uint256",
          "name": "id",
          "type": "uint256"
        },
        {
          "internalType": "string",
          "name": "content",
          "type": "string"
        },
        {
          "internalType": "bool",
          "name": "done",
          "type": "bool"
        }
      ],
      "stateMutability": "view",
      "type": "function",
      "constant": true
    },
    {
      "inputs": [],
      "name": "todosCount",
      "outputs": [
        {
          "internalType": "uint256",
          "name": "",
          "type": "uint256"
        }
      ],
      "stateMutability": "view",
      "type": "function",
      "constant": true
    },
    {
      "inputs": [
        {
          "internalType": "string",
          "name": "_content",
          "type": "string"
        }
      ],
      "name": "createTodo",
      "outputs": [],
      "stateMutability": "nonpayable",
      "type": "function"
    }
  ],
  "bytecode": "0x60806040526000805534801561001457600080fd5b5061071b806100246000396000f3fe608060405234801561001057600080fd5b50600436106100415760003560e01c8063bc8bc2b414610046578063d4474c9214610078578063e34f122114610096575b600080fd5b610060600480360381019061005b9190610338565b6100b2565b60405161006f93929190610428565b60405180910390f35b610080610171565b60405161008d9190610466565b60405180910390f35b6100b060048036038101906100ab91906105b6565b610177565b005b60016020528060005260406000206000915090508060000154908060010180546100db9061062e565b80601f01602080910402602001604051908101604052809291908181526020018280546101079061062e565b80156101545780601f1061012957610100808354040283529160200191610154565b820191906000526020600020905b81548152906001019060200180831161013757829003601f168201915b5050505050908060020160009054906101000a900460ff16905083565b60005481565b604051806060016040528060005481526020018281526020016000151581525060016000805481526020019081526020016000206000820151816000015560208201518160010190805190602001906101d192919061024b565b5060408201518160020160006101000a81548160ff0219169083151502179055509050506001600054610204919061068f565b6000819055507f216b7b554cc6be0fbaed756f9b62e83e41a91839dc1556b845c14d0f6703664660005482600060405161024093929190610428565b60405180910390a150565b8280546102579061062e565b90600052602060002090601f01602090048101928261027957600085556102c0565b82601f1061029257805160ff19168380011785556102c0565b828001600101855582156102c0579182015b828111156102bf5782518255916020019190600101906102a4565b5b5090506102cd91906102d1565b5090565b5b808211156102ea5760008160009055506001016102d2565b5090565b6000604051905090565b600080fd5b600080fd5b6000819050919050565b61031581610302565b811461032057600080fd5b50565b6000813590506103328161030c565b92915050565b60006020828403121561034e5761034d6102f8565b5b600061035c84828501610323565b91505092915050565b61036e81610302565b82525050565b600081519050919050565b600082825260208201905092915050565b60005b838110156103ae578082015181840152602081019050610393565b838111156103bd576000848401525b50505050565b6000601f19601f8301169050919050565b60006103df82610374565b6103e9818561037f565b93506103f9818560208601610390565b610402816103c3565b840191505092915050565b60008115159050919050565b6104228161040d565b82525050565b600060608201905061043d6000830186610365565b818103602083015261044f81856103d4565b905061045e6040830184610419565b949350505050565b600060208201905061047b6000830184610365565b92915050565b600080fd5b600080fd5b7f4e487b7100000000000000000000000000000000000000000000000000000000600052604160045260246000fd5b6104c3826103c3565b810181811067ffffffffffffffff821117156104e2576104e161048b565b5b80604052505050565b60006104f56102ee565b905061050182826104ba565b919050565b600067ffffffffffffffff8211156105215761052061048b565b5b61052a826103c3565b9050602081019050919050565b82818337600083830152505050565b600061055961055484610506565b6104eb565b90508281526020810184848401111561057557610574610486565b5b610580848285610537565b509392505050565b600082601f83011261059d5761059c610481565b5b81356105ad848260208601610546565b91505092915050565b6000602082840312156105cc576105cb6102f8565b5b600082013567ffffffffffffffff8111156105ea576105e96102fd565b5b6105f684828501610588565b91505092915050565b7f4e487b7100000000000000000000000000000000000000000000000000000000600052602260045260246000fd5b6000600282049050600182168061064657607f821691505b6020821081141561065a576106596105ff565b5b50919050565b7f4e487b7100000000000000000000000000000000000000000000000000000000600052601160045260246000fd5b600061069a82610302565b91506106a583610302565b9250827fffffffffffffffffffffffffffffffffffffffffffffffffffffffffffffffff038211156106da576106d9610660565b5b82820190509291505056fea2646970667358221220d05b694bbf74b3cc5db186c430084fb46e8356f7bcd92aced5ca6b0983f1624064736f6c634300080c0033",
  "immutableReferences": {},
  "source": "// SPDX-License-Identifier: GPL-3.0\n\npragma solidity ^0.8.12;\n\ncontract TodoList {\n    uint256 public todosCount = 0;\n\n    struct Todo {\n        uint256 id;\n        string content;\n        bool done;\n    }\n\n    event TodoCreated(uint256 id, string content, bool completed);\n\n    mapping(uint256 => Todo) public todos;\n\n    function createTodo(string memory _content) public {\n        todos[todosCount] = Todo(todosCount, _content, false);\n        todosCount = todosCount + 1;\n        emit TodoCreated(todosCount, _content, false);\n    }\n}\n",
  "sourcePath": "/Users/avner/Studies/avner/blockchain/tikal-fuse/eth-todo-list-vite/contracts/TodoList.sol",
  "compiler": {
    "name": "solc",
    "version": "0.8.12+commit.f00d7308.Emscripten.clang"
  },
  "schemaVersion": "3.4.6",
  "updatedAt": "2022-04-02T15:13:38.447Z",
  "networkType": "ethereum",
  "devdoc": {
    "kind": "dev",
    "methods": {},
    "version": 1
  },
  "userdoc": {
    "kind": "user",
    "methods": {},
    "version": 1
  }
}